:1000000002308A00C02A00002C132C0883168700B7
:10001000831207132C122C088316870083120712F1
:10002000AC132C088316870083128713AC122C089C
:100030008316870083128712080083160811831223
:100040000811831688118312881108008E30F7007A
:100050003208F8003108F900FA01F808031D3A28BF
:100060007908F800F9010830F702F808031D3A286A
:10007000F70142280310F81B4128F90DF80DF7038A
:100080003A28F8138A110A12FE2A31080319B528F2
:10009000B90035080319B528B907031856287F3069
:1000A000B902031CB5280319B5285A288130B907AD
:1000B0000318B5283908F700F801F901FA013208E8
:1000C000BD00BD173308BC003408BB001830B900B0
:1000D000BA013B1C83283808FA07031C7528F90A63
:1000E000031D7528F80A0319BA173708F907031C06
:1000F0007C28F80A0319BA173608B300B317330877
:10010000F8070318BA17BA0DF80CF90CFA0CBD0C65
:10011000BC0CBB0C0310B90B68280130F70703189F
:10012000B528F81B9A28BD0DFA0DF90DF80DF70347
:100130000319B528BD1FAB28FA0A031DAB28F90A1D
:10014000031DAB28F80A031DAB28F80CF90CFA0CB8
:10015000F70A0319B5283208BA003608BA06BA1FDA
:10016000B328F817B928F813B928F701F801F901ED
:10017000FA018A110A120D2B350803198129C100D1
:10018000390803198129C102031CCB287F30C1071C
:1001900003188129D1288130C102031C8129031948
:1001A00081294108F700F801F901FA01C001360878
:1001B000BF00BF173708BE003808BD001930C100A6
:1001C0003C08BD020318F4280130BE020318F428CD
:1001D000BF020318F428C0020318F428C00ABF0A9B
:1001E000BE0A3C08BD0726293B08BE0203180F299A
:1001F0000130BF0203180F29C00203180F29C00ADB
:10020000BF0A3B08BE073C08BD07031C2629BE0ADF
:10021000031D2629BF0A031D2629C00A26293A08DC
:100220008038BF02031825290130C0020318252990
:10023000C00A3A088038BF073B08BE07031C0329E1
:10024000BF0A031D0329C00A03297A14C10B2929F7
:1002500034290310BD0DBE0DBF0DC00D0310FA0DE6
:10026000F90DF80DC20DE028421C3C290310F80CD2
:10027000F90CFA0CC20C3F29F70303198129C21BA0
:1002800068290310BD0DBE0DBF0DC00D3C08BD0299
:10029000031854290130BE0203185429BF02031861
:1002A0005429C002031C77293B08BE0203185F29AA
:1002B0000130BF0203185F29C002031C77293A08E6
:1002C0008038BF02031868290130C002031C772957
:1002D000FA0A031D7729F90A031D7729F80A031D75
:1002E0007729F70A03198129F80CF90CFA0C36085A
:1002F000C1003A08C106C11F7F29F8178529F813E4
:100300008529F701F801F901FA018A110A12252B52
:100310003208B9003608B906B91F93290311031032
:10032000B21B0314C6293208B9003508BA003108D7
:10033000BA020319A129B91FC6290308013A83008B
:10034000C6293608BA003208BA020319AD29B91F06
:10035000C6290308013A8300C6293708BA003308C2
:10036000BA020319B929B91FC6290308013A830043
:10037000C6293808BA003408BA020319C529B91FBA
:10038000C6290308013A8300C62903108A110A12FC
:100390003B2B0330B402031CD72934308400831371
:1003A00000080319D729D529D529800BD42908009D
:1003B0002C132C0883168700831207172C122C0885
:1003C0008316870083120716AC132C088316870048
:1003D00083128717AC122C088316870083128716A6
:1003E0003208B300B30AB3030319FA29FF30B4008B
:1003F000C921F3293108B400C921AC132C08831694
:10040000870083128713AC122C088316870083128F
:1004100087123208B300B30AB3030319132AFF305B
:10042000B400C9210C2A3108B400C9218A110A126A
:100430004E2B831608118312081583168811831218
:1004400088153208B300B30AB30303192B2AFF300F
:10045000B400C921242A3108B400C92183168811A7
:10046000831288113208B300B30AB30303193C2A7C
:10047000FF30B400C921352A3108B400C9218A11DE
:100480000A125E2B83160811831208118316881135
:10049000831288153208B300B30AB3030319542A30
:1004A000FF30B400C9214D2A3108B400C921831698
:1004B0008811831288113208B300B30AB3030319F9
:1004C000652AFF30B400C9215E2A3108B400C92171
:1004D0008A110A126E2B2C132C08831687008312A4
:1004E00007132C122C088316870083120712AC13F3
:1004F0002C088316870083128717AC122C088316EA
:100500008700831287163208B300B30AB3030319B6
:100510008D2AFF30B400C921862A3108B400C921D0
:10052000AC132C088316870083128713AC122C0897
:1005300083168700831287123208B300B30AB3030D
:100540000319A62AFF30B400C9219F2A3108B4003C
:10055000C9218A110A127E2B3230840083130008CD
:100560000319BF2A0630F800F701F70BB52AF80B7C
:10057000B42A7B30F700F70BBB2A800BB22A0800A5
:1005800003081F398300A101C830A000A301A20005
:100590000230A5005830A400FF30AC0083161F14B1
:1005A0009F141F159F1107309C0083138312042092
:1005B0001D2083161F109F141F159F151F138312D4
:1005C0001F179F1783169F1783121F140030F80000
:1005D0001F08C73978049F000330F700F70BEE2A95
:1005E0001F151F19F12A83161E088312A6001E0864
:1005F000A7002708B2002608B10026287A08B40010
:100600007908B3007808B2007708B100B801B701E3
:100610002030B6008130B50045287A08B40079084A
:10062000B3007808B2007708B1007A08B8007908FA
:10063000B7007808B6007708B500BC01C030BB0031
:100640007F30BA008830B900BC287A08AB0079083E
:10065000AA007808A9007708A800B401B301B20184
:100660008130B1002B08B8002A08B7002908B6006D
:100670002808B5008829031C9F2B83168810831235
:100680008810AD01A108031D492B20082D02031875
:10069000502B2508B2002408B100D829AD0A422BFE
:1006A0000420AE01A308031D592B22082E020318B3
:1006B000602B2508B2002408B100192AAE0A522B7B
:1006C0001D20AF01A308031D692B22082F02031868
:1006D000702B2508B2002408B100422AAF0A622B11
:1006E0001D20B001A108031D792B2008300203183A
:1006F000802B2508B2002408B1006B2AB00A722BA7
:1007000004200230B100FA30B200AC22B10B832BCE
:1007100083168810831288140F30B100DC30B200C9
:10072000AC22B10B8E2B8316881083128810643094
:10073000B100CA30B200AC22B10B992BA32B8316A7
:0A074000881083128814E62A630073
:02400E007A3FF7
:00000001FF
;PIC16F877A
;CRC=E719  CREATED="03-oct.-23 02:33"
